:020000040800F2
:1000000000040020B9020008BB020008BB0200087F
:10001000BB020008BB020008BB020008BB020008CC
:10002000BB020008BB020008BB020008C1020008B6
:10003000BB020008BB020008DF020008BB02000888
:10004000BB020008BB020008BB020008BB0200089C
:10005000BB020008BB020008012000088120000844
:10006000F120000861210008D1210008BB0200082E
:10007000BB020008BB020008BB020008BB0200086C
:10008000BB020008BB020008BB020008BB0200085C
:10009000BB020008BB020008BB02000841220008A6
:1000A000BB020008BB020008BB020008BB0200083C
:1000B00081280008C1290008BB020008BB02000813
:1000C000BB020008BB020008BB020008BB0200081C
:1000D000BB0200087126000891260008BB02000838
:1000E00021240008BB020008BB020008BB02000874
:1000F000BB020008BB020008BB020008BB020008EC
:10010000BB020008BB020008BB020008BB020008DB
:10011000BB020008BB020008BB020008BB020008CB
:10012000BB020008BB020008BB020008BB020008BB
:10013000BB020008BB020008BB020008BB020008AB
:10014000BB020008BB020008BB020008BB0200089B
:10015000BB020008BB020008BB020008BB0200088B
:10016000BB020008BB020008BB020008BB0200087B
:10017000BB020008BB020008BB020008BB0200086B
:10018000BB020008BB020008BB020008BB0200085B
:10019000BB020008BB020008BB020008BB0200084B
:1001A000BB020008BB020008BB020008B126000821
:1001B000BB020008BB020008BB020008BB0200082B
:1001C000BB020008BB020008BB020008BB0200081B
:1001D000BB020008BB020008BB020008BB0200080B
:1001E00072B6264880F30888254880F30988254898
:1001F00025490860022080F31488BFF36F8F01F057
:10020000AFFE02F015FC4FF0553020491B4A9142D9
:100210003CBF41F8040BFAE71D49194A91423CBF23
:1002200041F8040BFAE71B491B4A1C4B9A423EBF9C
:1002300051F8040B42F8040BF8E700201849194A5A
:1002400091423CBF41F8040BFAE701F0A1FE01F036
:100250008FFE154C154DAC4203DA54F8041B884749
:10026000F9E702F0D5FD124C124DAC4203DA54F816
:10027000041B8847F9E701F083BE0000000400205A
:10028000000800200000000808ED00E00000002049
:1002900000040020F4340008000800205808002062
:1002A00058080020C8100020E0010008E001000804
:1002B000E0010008E001000892E700F000F8FEE726
:1002C000EFF309820C31EFF31183A1E8FC4F0C30FE
:1002D000B0E8FC4F82F3098883F311887047EFF38D
:1002E000118308B502F064FD002808BF08BDBDE811
:1002F00008400C31EFF30982A1E8FC4F0C30B0E864
:10030000FC4F82F3098883F311887047002383F33D
:1003100011882846A047002002F002FDFEE70000F9
:10032000844641EA000313F003036DD1403A41D300
:1003300051F8043B40F8043B51F8043B40F8043BBF
:1003400051F8043B40F8043B51F8043B40F8043BAF
:1003500051F8043B40F8043B51F8043B40F8043B9F
:1003600051F8043B40F8043B51F8043B40F8043B8F
:1003700051F8043B40F8043B51F8043B40F8043B7F
:1003800051F8043B40F8043B51F8043B40F8043B6F
:1003900051F8043B40F8043B51F8043B40F8043B5F
:1003A00051F8043B40F8043B51F8043B40F8043B4F
:1003B000403ABDD2303211D351F8043B40F8043BEF
:1003C00051F8043B40F8043B51F8043B40F8043B2F
:1003D00051F8043B40F8043B103AEDD20C3205D3FF
:1003E00051F8043B40F8043B043AF9D2043208D0F7
:1003F000D2071CBF11F8013B00F8013B01D30B8869
:1004000003806046704700BF082A13D38B078DD046
:1004100010F003038AD0C3F10403D21ADB071CBF18
:1004200011F8013B00F8013B80D331F8023B20F882
:10043000023B7BE7043AD9D3013A11F8013B00F8BB
:10044000013BF9D20B7803704B7843708B78837043
:10045000604670470000000000000000000000003F
:10046000012914BF6FF01300002070470000000046
:1004700000290CBF6FF0130000207047000000003F
:100480002DE9F0474FF0000CD5094FF00F0802227C
:100490000127032610E0046A24EA030343EA090360
:1004A000036203680AEA030A4AEA0203036049088E
:1004B0002AD092000CF1010C0CF007039B004FEACC
:1004C0004C0E11F0010F05FA03F907FA0CFA06FABF
:1004D0000EFE08FA03F3EAD0446824EA0A044460F2
:1004E000846824EA0E048460C468BCF1070F24EA1F
:1004F0000E046FEA0E0AC460CDD9446A24EA0303ED
:1005000043EA09034362CCE7BDE8F087000000003E
:10051000024A136843F0C00313607047003801407B
:10052000024A136843F0C003136070470044004060
:10053000836A9962DA6912F0800FC26806D0D20627
:1005400003D51A6842F040021A6070471107F6D5C9
:10055000996841F400019960F1E700BF00000000D4
:10056000FEE700BF000000000000000000000000E7
:10057000014B5B6883607047001000E000000000E2
:100580000E4A0F4B81685B6810B4946802691B1BAC
:100590005B1AD218416902614268C46841F10001E6
:1005A0009342026888BF436001349342C0E9023439
:1005B000416110BC38BF0360704700BF380C002099
:1005C000001000E00000000000000000000000003B
:1005D00010B4302383F311880B4B5C684942201A16
:1005E00008401968821A8A4207D3944205D35A6098
:1005F000002383F3118810BC70470020002383F38D
:10060000118810BC704700BF300C002000000000B3
:10061000064B5A684942101A08401968884203D3A9
:10062000824201D35860704700207047300C002090
:10063000037A012B10B416D0836D1A49426D03F56D
:100640009643A1FB03131B0BD3604024012354608A
:100650004FF0FF31936040F22D13136010BC116214
:1006600080F85C107047104B98420DD00F4B9842A9
:10067000E2D10F4B9A6D42F400329A659A6F42F4C0
:1006800000329A679B6FD7E7094B1A6E42F480429B
:100690001A66D3F8802042F48042C3F88020D3F851
:1006A0008030C9E7B5814E1BA8080020080900204A
:1006B00000100240000000000000000000000000E8
:1006C000302383F3118891F84C300C2B10D8DFE8DD
:1006D00003F02A0F0F260B070F0B0F0F0F0F0B0046
:1006E0000A6D936801339360D1E9003213605A6058
:1006F00010B400224FF0FF340B6C88680C6581F851
:100700004C201B689A688242FBD25A680020C1E9DB
:1007100000321160596080F3118810BC70470B6D76
:1007200000221A60E4E7002383F31188704700BFBA
:100730000368984234D0F0B4002505E0BCF10B0FFB
:1007400029D01B68984224D0DA680A43DA6011B1D4
:100750001A691142F5D0D3E90124166E92F84CC003
:100760003443BCF10A0F1466E8D1166D3442E8D068
:10077000146C9768156582F84C502468A668BE42D0
:10078000FBD21B6866689842C2E90046326062602C
:10079000DAD1F0BC7047166D36EA0404D1D1E7E730
:1007A000704700BF000000000000000000000000D3
:1007B0002DE9F047456DD5F80090EB692B621A07DB
:1007C00082B0044640F0BB80D90500F1AA809E06A5
:1007D0004ED504F10C074FF03008201D00262AE00A
:1007E000D4E908239A4237D06369511C013321624E
:1007F000636182F800A0D4E907329A4201D3A36969
:100800002362E268BA4211D01368116CD2F808C0B2
:10081000E3605F60166582F84C6009688B68634529
:10082000FBD24B68C2E900131A604A6086F3118854
:10083000EB699A061CD588F311886A6A94F85CA063
:1008400063690AEA020A002BCAD10421FFF770FF8C
:10085000D4E908239A42C7D16369002BC4D04FF46E
:100860000061FFF765FF86F31188EB699A06E2D411
:1008700019F0800F43D0180641D504F13006302717
:10088000002127E0A36B0133A363236C501CA064F9
:10089000984292F800E001D3E36BA364236BB34268
:1008A00011D01A68186C226356609A68196583F82B
:1008B0004C100068D0F808C09445FAD24268C3E9E9
:1008C000000213604360C5F828E081F31188EB69EA
:1008D0001A0614D587F31188D4E911029042D1D1B8
:1008E000A06B0028CED00821201D0193FFF720FF28
:1008F00029F080022A60002282F31188019B19F0FE
:10090000400F0BD0590609D5302383F31188D4E961
:1009100011239A422ED0002383F3118802B0BDE840
:10092000F0870193302282F311884FF48061201DFB
:10093000FFF7FEFE002282F31188019B47E7C3F315
:10094000C0010902DF0748BF41F020019E0748BFF0
:1009500041F04001580748BF41F080010193302227
:1009600082F31188201DFFF7E3FE002282F3118835
:10097000019B29E7A36B002BCDD01021201DFFF791
:10098000D7FE29F040032B60C5E700BF0000000040
:1009900070B42A4D3023EE6883F311882848046828
:1009A000C3687366844241D0B16E4BB11A689342FA
:1009B00003D09268914238BF1146DB68002BF5D115
:1009C000B1602368626E03605860A168236C606642
:1009D000C0E90242002284F84C201B689A688A42CF
:1009E000FBD25A68E968C4E90032146028685C6088
:1009F0008A688368934214D903682B605D60012381
:100A000080F84C30002381F84C300B6CE8601B6898
:100A10009C68A242FBD35A68C1E900321160596058
:100A200000DF002383F3118870BC70470023A360AC
:100A3000002383F3118870BC704700BF680A002050
:100A40004808002000000000000000000000000036
:100A5000F0B4364C364DA368E96843B388689A68A9
:100A6000904207D993F84C209860062A45D0072A6F
:100A700034D012B32D4B03E098688A68904202D3B9
:100A80001B68A342F8D15A682868C1E90032116096
:100A90000622596081F84C2003682B600C655D606C
:100AA000012380F84C30E86000DFF0BC70474B6EEB
:100AB0004C66C4E90213F0BC7047D3E900673E609E
:100AC000776083F84C201A6C126896688642FBD2D5
:100AD0001A605068586003605360CBE7D3E9002088
:100AE0001E6D02605060324603E098689768874246
:100AF000EED312689642F8D1EAE7D3E900201E6DE2
:100B000002605060324603E098689768874202D3DB
:100B100012689642F8D150681A60586003605360BA
:100B2000B36888689A6890429CD8A3E74808002078
:100B3000680A002000000000000000000000000023
:100B4000164B30B403F11004D96144601C69826013
:100B5000022A046038BF0222606018614FF08040B2
:100B60008C184463002404610224C460456AA5EB28
:100B7000010C624503D930BC704729461546013443
:100B800021444163426A511BA142F6D2022CF2D9A0
:100B90005A6B42F0010230BC5A637047680A002069
:100BA0002DE9F0415C4D4B1CEE6886B0074669D0DC
:100BB000A8465A4B58F8100FCDE903364FF0804C39
:100BC0000023059340450A46DCF8241000F0978086
:100BD000EB698468CB1AD31828BF13469C4223D9EB
:100BE000022A38BF022201EB020ECCF834E0DCF816
:100BF00024E0AEEB01018A4298BF022214D80132F0
:100C000002EB0E01CCF83410DCF82410A1EB0E0E30
:100C100096457DD2022A07D96A6B42F001026A63C7
:100C200002E000681B1B84689C42FAD3029382682E
:100C30000090D21A436801936C461C604FF0FF335A
:100C4000C0E90142AB61286886F84C7003682B60EC
:100C500001225D60314680F84C20E86000DF009B97
:100C600063B12A69A2421DD0DDE901109A680B60C8
:100C70000244C3E901124FF0FF33AB61306D06B09F
:100C8000BDE8F081286886F84C7003682B6001226B
:100C90005D60314680F84C20E86000DF306D06B0C2
:100CA000BDE8F081002243452B610092C3F8048027
:100CB0002AD09A6802994FF080400A449A60416AAB
:100CC000EB69CC1AA242D9D95B1A1344022B38BF64
:100CD0000223CA184263426A511A994228BF02236A
:100CE000CCD30133D1184163416A8A1A9A4211D296
:100CF000022BC3D96B6B43F001036B63BEE76C46F9
:100D00002046FFF71DFF9EE74FF08043DA60B5E70E
:100D10008E4674E70A46E4E7680A0020C106000828
:100D200070B5302304460D4683F31188164E08E053
:100D30006268C3E9004213606360FFF731FF002877
:100D400008DBA3682946042043B9F368002DEFD1DE
:100D50004FF0FF30002383F3118870BDA368A169B1
:100D6000013BA36023694A1C9A4228BFE368A26141
:100D70000D7828BFA361E3690BB120469847002393
:100D800083F31188284670BD680A00200000000027
:100D90004FF0FF310C30FFF7C3BF00BF0000000071
:100DA0000C30FFF7BDBF00BF0000000000000000D6
:100DB0002DE9F041302304460F46164683F311888F
:100DC000DFF8608008E06568C3E900452B60636078
:100DD000FFF7E6FE002809DBA3683146042053B97B
:100DE000D8F80C30002EEED14FF0FF30002383F303
:100DF0001188BDE8F0816269A368511C013B616103
:100E0000A3601770D4E904329A4224BFE368636197
:100E1000E3690BB120469847002080F31188BDE8B4
:100E2000F08100BF680A0020000000000000000000
:100E30004FF0FF323030FFF7BBBF00BF00000000B3
:100E40003030FFF7B5BF00BF000000000000000019
:100E50002DE9F843054689461646302383F3118869
:100E6000114F00F1200806E02B62C3F85080FFF715
:100E700097FE044658B9AB6ADB691B0631464FF052
:100E800003000FD4FB68002EEED14FF0FF34002397
:100E900083F311881CB949462846FFF749FB2046D1
:100EA000BDE8F8830024F2E7680A00200000000093
:100EB0002DE9F84F9046002A52D00026294D0446CD
:100EC0008B461F46B146302383F3118804F1200A74
:100ED00005E02362C3F850A0FFF762FE58B9A36A89
:100EE000DB691A0639464FF0030033D4EB68002F54
:100EF000EFD14FF0FF3089F3118840BBA8EB060C0F
:100F0000302383F31188A26AD3691B060ED5DC4413
:100F10005B4601E063451FD013F8011B9162D16964
:100F2000090600F10100F5D406448344E36818077C
:100F300003D5916841F400019160DB0603D5136885
:100F400043F04003136089F31188B045BBD83046A5
:100F5000BDE8F88F0020CEE7E36806448344ECE761
:100F60001646F4E7680A00200000000000000000B8
:100F70004FF0FF33FFF79CBF0000000000000000AF
:100F8000FFF796BF00000000000000000000000016
:100F9000F8B50D46302383F31188836AD96940F28E
:100FA0000F12114219D1104E044600F1180705E046
:100FB000A3611F65FFF7F4FD58B9A36ADB699B06BF
:100FC00029464FF003000DD4F368002DF0D14FF007
:100FD000FF30002383F31188F8BD002383F31188C9
:100FE0000120F8BD0020F4E7680A0020000000009E
:100FF00010B54FF0FF310446FFF7CAFF00B110BD36
:10100000A36A586ADA699206F9D4E268510703D5EF
:10101000996841F0805199609205F0D51A6842F0C4
:1010200010021A6010BD00BF0000000000000000A8
:1010300010B50446FFF7ACFF00B110BDA36A586AB3
:10104000DA699206F9D4E268510703D5996841F04C
:10105000805199609205F0D51A6842F010021A602A
:1010600010BD00BF000000000000000000000000F4
:101070002DE9F04F914683B0002A68D01F46354EC7
:1010800000230446884601934FF0300A8AF3118802
:10109000A36ADD6940F20F110D404FD104F1180B26
:1010A00006E0A361C3F850B0FFF77AFD58B9A36A10
:1010B000DB699B0639464FF0030046D4F368002FE6
:1010C000EFD14FF0FF30002383F3118868BB019B01
:1010D000A9EB030C8AF31188A36AD9698A0611D592
:1010E000C444414601E08C4523D05B6A01F8013BD2
:1010F000A36AD869820605F10105F4D4019A2A444D
:101100000192A844E168480703D5986840F08050F0
:101110009860890503D5196841F010011960002312
:1011200083F31188019B9945B0D8019803B0BDE8BD
:10113000F08F019B2B440193A844F0E7002383F335
:101140001188019803B0BDE8F08F0020BBE7019241
:10115000EBE700BF680A002000000000000000006C
:101160004FF0FF33FFF784BF0000000000000000D5
:10117000FFF77EBF0000000000000000000000003C
:101180002DE98848734B744ADB6874485A6410210F
:101190004FF48172FFF774F900F580604FF48172AB
:1011A0008021FFF76DF94FF481724FF48071FFF7E2
:1011B00067F94FF481724FF40071FFF761F9302342
:1011C00083F31188664C674A21785068002301290F
:1011D000C4E90120E36000F0FC81E1690B60257C3B
:1011E0004B63042D8B63CB630B6484BF8B64CB6434
:1011F00000234B62E6696369D5681168B3FBF1F3BC
:10120000013BB3620138D36BF062736005F00F03EA
:10121000012B57D0022B56D00023506900F00F014C
:10122000012903D0022903D143F0200343F0100326
:10123000D16901F00F07012F03D0022F03D143F42E
:10124000007343F48073576A07F00F0CBCF1010F71
:1012500004D0BCF1020F03D143F4005343F4805394
:1012600094F818C0BCF1000F30D005F0F005102D37
:1012700000F09981202D00F0948100F0F0001028FA
:1012800000F0A481202800F09F8101F0F0011029D6
:1012900000F08E81202900F0898107F0F007102FDF
:1012A00040F08D81516C43F4804333620120002370
:1012B00021F0FF0170613361F160136C43F400436E
:1012C00073640CE0002343F00103A6E7526C336221
:1012D000012122F0FF027161C6F810C0F26085237F
:1012E000022233600023227083F31188302585F3B6
:1012F0001188E268E16942F00102E2604B6383F326
:10130000118885F31188E268E16942F00202E26027
:101310008B6383F3118885F31188E268E16942F0F9
:101320000402E260CB6383F3118885F31188E268DD
:10133000E16942F00802E2600B6483F31188DFF890
:101340002890DFF828A0DFF828800A4FDFF828B0BF
:101350000A4E75E0680A0020543300080004004873
:101360008808002000080020A40C0020A50C002004
:10137000610C0020600C0020898888885917B7D13B
:1013800097F800C0A26803FB0CFC02FB0CFCA6FB58
:101390000C2C4FEA5C3185F31188E26842F00102BF
:1013A000E260E269516380F3118897F800C0A26897
:1013B000CCF1010C03FB0CFC02FB0CFCA6FB0C2C7F
:1013C0004FEA5C3185F31188E26842F00202E26084
:1013D000E269916380F3118897F800C0A26803FB6B
:1013E0000CFC02FB0CFCA6FB0C2C4FEA5C3185F3D9
:1013F0001188E26842F00402E260E269D16380F39E
:1014000011883978A268C1F1010103FB01F102FBE7
:1014100001F1A6FB0131490B85F31188E368E2690C
:1014200043F00803E360116480F3118885F31188A9
:101430004FF4FA610820FFF7B3FB002383F3118810
:1014400099F800309AF8002098F8001003EB830315
:1014500003EB8303C3EBC3039B009BB2D2B201F047
:10146000FF0000298CD098F8001003FB02F2ABFBC0
:1014700002020129C2F3CF0C39D098F80020022AC9
:10148000D4D103EB5C013878A26889B201FB00F08B
:1014900002FB00F0A6FB00204FEA5C0C400B85F33A
:1014A0001188E26842F00102E260E26950630020C4
:1014B00080F311883A78C2F1010202FB01F1A268BF
:1014C00002FB01F1A6FB0121490B85F31188E268BB
:1014D00042F00202E260E269916380F31188A3EBBB
:1014E0000C033978A2689BB203FB01FC79E7A3EBFC
:1014F0005C003978A26880B200FB01F102FB01F1C7
:10150000A6FB01214FEA5C0C490B85F31188E268C8
:1015100042F00102E260E2695163002181F3118827
:101520003A78C2F1010202FB00F0A26802FB00F06F
:10153000A6FB0020400B85F31188E26842F002020E
:10154000E260E269906381F3118838789C441FFA65
:101550008CFCA3680CFB00F003FB00F0A6FB003042
:10156000400B85F31188E368E26943F00403E3600C
:10157000D06381F311883878A368C0F101000CFBB7
:1015800000F003FB00F0A6FB0030400B85F3118850
:10159000E368E26943F00803E360106481F31188B3
:1015A00044E743F0080343F0040366E643F40063B2
:1015B00007F0F007102F43F480633FF473AE202F41
:1015C0002AD143F400436DE643F0800343F0400327
:1015D0005BE603F1804303F50433996D41F00201AA
:1015E0009965996F41F002019967996F996B41F084
:1015F00002019963996B21F0020199639B6B074982
:10160000E369616146F668019961D96101F1807110
:1016100001F580311965EDE5516C46E680FE210A41
:10162000F0B50446302585F31188A1F1700C6044B3
:10163000012143612B4B43642B4B826080F84E1099
:10164000A0F1200E2949DF6A40F8081CD968C0F8CB
:101650000CE06FF0020EC0F834E04FF0807E0561C0
:1016600000F1380640F804EC826600F158050022CB
:1016700003F1280E826180F84D20C763C0F838E07E
:10168000C0E91822846403643E60C0E9165500F185
:101690005405DE62456586688D680265AE4214D9E0
:1016A00081F84C200A6C12689468A542FBD35468F8
:1016B000C1E9002421600124516080F84C40D860C9
:1016C00000DF002383F31188F0BD80F84C201B68F5
:1016D0009A689642FBD95A6844F80C304260106010
:1016E0005860EEE758330008680A00200D03000830
:1016F0002DE9F04F83B0C76901929A464FF0300947
:1017000089F31188002A33D0DDF804B004460E4670
:10171000A268A169934522698CBFA5685D46A2EBCA
:101720000108A84531D82AD2A5EB08034246304625
:101730000093FEF7F5FD06EB0800DDF80080E16898
:101740004246FEF7EDFDE1684144A268A161521BEB
:10175000A2600DB30FB12046B847002383F3118870
:10176000ABEB050B2E4489F31188BBF1000FCFD1F1
:101770000198002383F3118803B0BDE8F08F2A4657
:101780003046FEF7CDFDE168DFE72A463046FEF73A
:10179000C7FDA1692944D8E70C4BDA68BAF1000FFC
:1017A0000AD061680420C2E900410A6051466260C3
:1017B000FFF7F6F90028ABD0019BA3EB0B00002349
:1017C00083F3118803B0BDE8F08F00BF680A0020E2
:1017D0004FF0FF330C30FFF78BBF00BF000000005D
:1017E0000C30FFF785BF00BF0000000000000000C4
:1017F0002DE9F04F83B0D0F81C8001929A464FF04B
:10180000300989F3118882B3DDF804B004460F462D
:10181000A368D4E904609B458CBFA5685D46361A71
:10182000AE422FD828D232463946FEF779FDAA1BA0
:10183000E0680092B919FEF773FDE368009A1A4454
:10184000A36862615B1BA3601DB3B8F1000F01D0F8
:101850002046C047002383F31188ABEB050B2F44D0
:1018600089F31188BBF1000FD2D10198002383F3D3
:10187000118803B0BDE8F08F2A463946FEF750FDC7
:10188000E268DDE72A463946FEF74AFD62692A44E6
:10189000D6E70C4BDB68BAF1000F0AD062685146FC
:1018A000C3E90042042013606360FFF779F9002860
:1018B000AED0019BA3EB0B00002383F3118803B090
:1018C000BDE8F08F680A0020000000000000000062
:1018D0004FF0FF333030FFF78BBF00BF0000000038
:1018E0003030FFF785BF00BF00000000000000009F
:1018F000F8B584460F46302383F31188134B00F16B
:10190000200603254FF0010E0FE0D9681868CCF8C7
:10191000201081F84C5002681A600E65536080F800
:101920004CE0D86000DF0C6D2CB9DCF82820D269BF
:101930001206EAD50024002383F311881CB9394626
:101940006046FEF7F5FD2046F8BD00BF680A00209E
:101950000EB42DE9F04F86B00FAB53F8046B029331
:101960003546019315F8011B002900F00182044659
:101970004FF000090CE023682046DB68984709F126
:1019800001092E46354615F8011B002900F0D980C3
:101990002529F0D173782D2B04BFB51C4FF0010C15
:1019A0002B7818BF4FF0000C2B2B03BF6B784FF038
:1019B000010E01354FF0000E302B03BF01351F46DD
:1019C0002B7820272A2B49D16B78DDF804B02E2BF9
:1019D0005BF8042B05F1020656D0002003F0DF016E
:1019E0004C295FD0A3F14405342D00F2B080DFE82C
:1019F00015F0DC00AE00AE00AE00AE00DC00AE00C4
:101A0000AE00AE00AE00AE004D011201AE00AE0061
:101A1000AE00AE00B401AE00AE001201AE00AE00EA
:101A2000AE00AE00AE00AE00AE00AE00AE00AE0046
:101A30006F01DC00AE00AE00AE00AE00DC00AE0018
:101A4000AE00AE00AE00AE004D011201AE00AE0021
:101A50005001AE00B401AE00AE0012016E1C002BAE
:101A60006FD0002205E016F8013B01EB4002002B8D
:101A700067D0A3F13001C9B2092902EB8200F2D983
:101A80002E2BDDF804B0A8D13378002B59D02A2BA7
:101A900047D173785BF8040B03F0DF014C2906F1A2
:101AA00002069FD116F8013B002B4AD0A3F1440156
:101AB00034294CD8DFE811F079004B004B004B0083
:101AC0004B0079004B004B004B004B004B00EA00F1
:101AD000AF004B004B004B004B0051014B004B0043
:101AE000AF004B004B004B004B004B004B004B003A
:101AF0004B004B004B000C0179004B004B004B009E
:101B00004B0079004B004B004B004B004B00EA00B0
:101B1000AF004B004B00ED004B0051014B004B0060
:101B2000AF0001360020A3F13001C9B2092900EB52
:101B300080053FF653AF16F8013B01EB4500002B43
:101B4000F1D1484606B0BDE8F04F03B070478DF8BC
:101B50000C30013ACDF804B022EAE27ABCF1000F71
:101B600004D1002ACAF1000A00F3E48000250DF137
:101B70000C0B05F10108D84423681BF8011BDB6836
:101B800020469847C345F7D109F10109A944BAF1A4
:101B9000000F3FF4F7AE554623683946DB68204610
:101BA0009847013DF8D1D144ECE65B4653F8040B6D
:101BB00001930028C0F2B680BEF1000F00F0D5807E
:101BC0002B238DF80C300DF10D0E03AB0EF10B0B2A
:101BD0005D466B49A1FB0081C90801EB810A88467B
:101BE000A0EB4A0130318246C9B2BAF1090F05F8BB
:101BF000011D4046EDDCABEB0500704401E015F83B
:101C0000011F0EF8011B8645F9D1AEEB0305521BEF
:101C10009B46013D2DE04FF010085B4653F8040B46
:101C200001930DF1170300E02B468646B0FBF8F058
:101C300008FB10EA0AF130013929C8BF0AF137015F
:101C4000C9B2C64503F1FF3503F8011CECD20DF112
:101C50001700451B184603AB0DF117089E4601E01F
:101C600010F8011B0EF8011B4045F9D1521B9B4691
:101C7000013D22EAE27ABCF1000F03D1002ACAF149
:101C8000000A2EDC002DBFF674AF80E74FF0080885
:101C9000C3E75B4653F804BB0193BBF1000F5FD071
:101CA0009BF8001000284AD100294BD047F6FE705F
:101CB000594601E0C54205D411F8013FABEB0105DF
:101CC000002BF7D1A1EB0B01521A4D1E2027D0E7B4
:101CD0005BF8043BCDF804B0013A8DF80C302027B6
:101CE0003AE7D0469BF800102D290FD02B290DD0B4
:101CF00023683946DB68204698471AF1010AF7D174
:101D0000002DA9EB0809BFF634AF3BE6302FEFD129
:101D100022682046D2680BF1010B09F10109013D4F
:101D20009047E5E72D238DF80C3040420DF10D0E64
:101D300003AB4BE76546D0460DF10C0BD2E709B17A
:101D40000138B5D522EAE27ABCF1000F03D1002AAE
:101D5000CAF1000A0EDC202719E74FF00A085CE7F9
:101D6000DFF820B00028A1D0EAE703AB9E462DE7BC
:101D70008946E6E6D04620274FF0FF35B2E700BFA0
:101D8000CDCCCCCC60330008000000000000000087
:101D90002DE98048644B654ADB6865485A6485B024
:101DA00040F282321021FEF76BFB40F2823220219A
:101DB000FEF766FB4FF0904040F282320421FEF7BE
:101DC0005FFB40F282320821FEF75AFB302585F393
:101DD0001188584F4FF002083846FEF729FC0024BE
:101DE00087F8088084F3118885F31188524E3046B5
:101DF000FEF71EFC86F8088084F3118885F31188AD
:101E0000FEF726FE84F311884C493046FFF7A0FD0B
:101E1000FEF7BEFD85F311884CF250310820FEF725
:101E2000BFFE84F3118885F31188FEF711FE84F359
:101E300011884349DFF80C91DFF80CB1DFF80C8111
:101E40003046FFF785FD0C37FEF7A2FD264622E05F
:101E5000BCF1090F02D0BCF1000F01D189F800409C
:101E600009299CBFC9B28BF80010012B59D0092B4E
:101E700054D0002B52D0022B53D0092A02D8344B15
:101E8000D2B21A7085F311884FF4FA710820FEF768
:101E900087FE86F311884FF0FF313846CDE90044C4
:101EA000CDE90244FEF73CFF4FF47A730F226946F6
:101EB0003846FFF71DFC824685F31188FEF7C8FD02
:101EC00086F3118823491C486A46FFF741FDFEF757
:101ED0005FFDBAF1030FD5D985F31188FEF7B8FD80
:101EE00086F311881C4914486A46FFF731FDFEF756
:101EF0004FFD9DF800009DF801109DF802309DF8FF
:101F000003203128A0F1300CA1F13001A3F13003FE
:101F1000A2F130029CD189F800C0A1E788F8004006
:101F2000ABE788F80030A8E7680A002068330008AB
:101F300000080048A80800200809002070330008A5
:101F4000A0330008600C0020A40C0020610C0020CD
:101F5000A50C0020C4330008D033000800000000A6
:101F6000704700BF000000000000000000000000FB
:101F7000704700BF000000000000000000000000EB
:101F8000FEE700BF000000000000000000000000AD
:101F9000F8B5154D154F16491648174A05F1700446
:101FA00081420DD9043A034652F8046F43F8046B9A
:101FB0009942F9D84B1E1B1A23F00303043318442B
:101FC000874207D97A1E121A22F003020432002136
:101FD00001F06EF9A54205D0D5E90420D5E9061730
:101FE0001035DDE7F8BD00BF24340008C81000201C
:101FF000C8100020C81000204C3500080000000068
:10200000194A536903F00103536143B370B5174C88
:10201000A3680BB1E0689847302383F311882168E7
:10202000A14214D000260B4609681A6C9D682160F5
:102030004C601E6583F84C6012689068A842FBD221
:102040005068A142C3E9002003605360EBD1002334
:1020500083F31188064B4FF080525A6070BD044BD9
:102060004FF080525A607047000401406809002018
:1020700000ED00E000000000000000000000000093
:10208000174AF8B5536903F0020353611BB3154FA8
:10209000BB690BB1F8699847302383F31188124C60
:1020A0003969A14214D000260B4609689D681A6C54
:1020B00039614C601E6583F84C6012689068A842D4
:1020C000FBD25068A142C3E9002003605360EBD10A
:1020D000002383F31188054B4FF080525A60F8BDFE
:1020E00000040140680900207809002000ED00E0AC
:1020F000174AF8B5536903F0040353611BB3154F36
:10210000BB6A0BB1F86A9847302383F31188124CED
:10211000396AA14214D000260B4609689D681A6CE2
:1021200039624C601E6583F84C6012689068A84262
:10213000FBD25068A142C3E9002003605360EBD199
:10214000002383F31188054B4FF080525A60F8BD8D
:1021500000040140680900208809002000ED00E02B
:10216000174AF8B5536903F0080353611BB3154FC1
:10217000BB6B0BB1F86B9847302383F31188124C7B
:10218000396BA14214D000260B4609689D681A6C71
:1021900039634C601E6583F84C6012689068A842F1
:1021A000FBD25068A142C3E9002003605360EBD129
:1021B000002383F31188054B4FF080525A60F8BD1D
:1021C00000040140680900209809002000ED00E0AB
:1021D000174AF8B5536903F0100353611BB3154F49
:1021E000BB6C0BB1F86C9847302383F31188124C09
:1021F000396CA14214D000260B4609681A6C9D6800
:1022000039644C601E6583F84C6012689068A8427F
:10221000FBD25068A142C3E9002003605360EBD1B8
:10222000002383F31188054B4FF080525A60F8BDAC
:102230000004014068090020A809002000ED00E02A
:10224000F8B56C4B5D6905F47872AC065A6125D51A
:10225000694CA36D0BB1E06D9847302383F311886F
:10226000664E216DB14216D04FF0000C0B46096846
:102270001A6C9F6821654E60C3F850C083F84CC04B
:1022800012689068B842FBD25068B142C3E900209E
:1022900003605360EAD1002383F31188680625D5D3
:1022A000554CA36E0BB1E06E9847302383F3118831
:1022B000534E216EB14216D04FF0000C0B46096808
:1022C0001A6C9F6821664E60C3F850C083F84CC0FA
:1022D00012689068B842FBD25068B142C3E900204E
:1022E00003605360EAD1002383F31188290625D5C2
:1022F000414CA36F0BB1E06F9847302383F31188F3
:10230000404E216FB14216D04FF0000C0B460968C9
:102310001A6C9F6821674E60C3F850C083F84CC0A8
:1023200012689068B842FBD25068B142C3E90020FD
:1023300003605360EAD1002383F31188EA0529D5AD
:102340002D4CD4F8883013B1D4F88C009847302342
:1023500083F311882C4ED4F88010B14217D04FF07F
:10236000000C0B4609681A6C9F68C4F880104E6018
:10237000C3F850C083F84CC012689068B842FBD2D2
:102380005068B142C3E9002003605360E9D10023E3
:1023900083F31188AB0527D5174CD4F8983013B1C7
:1023A000D4F89C009847302383F31188174DD4F854
:1023B0009010A94215D000270B4609681A6C9E6838
:1023C000C4F890104D601F6583F84C7012689068D7
:1023D000B042FBD25068A942C3E9002003605360B9
:1023E000EAD1002383F31188094B4FF080525A60E1
:1023F000F8BD00BF0004014068090020B8090020B2
:10240000C8090020D8090020E8090020F8090020A8
:1024100000ED00E0000000000000000000000000EF
:10242000F8B5884B5D6905F47C426E055A6129D583
:10243000854CD4F8A83013B1D4F8AC0098473023B9
:1024400083F31188814ED4F8A010B14217D04FF019
:10245000000C0B4609681A6C9F68C4F8A0104E6007
:10246000C3F850C083F84CC012689068B842FBD2E1
:102470005068B142C3E9002003605360E9D10023F2
:1024800083F311882C0529D56F4CD4F8B83013B1DB
:10249000D4F8BC009847302383F311886C4ED4F8ED
:1024A000B010B14217D04FF0000C0B4609681A6CFF
:1024B0009F68C4F8B0104E60C3F850C083F84CC099
:1024C00012689068B842FBD25068B142C3E900205C
:1024D00003605360E9D1002383F31188E80429D510
:1024E000594CD4F8C83013B1D4F8CC0098473023F5
:1024F00083F31188574ED4F8C010B14217D04FF073
:10250000000C0B4609681A6C9F68C4F8C0104E6036
:10251000C3F850C083F84CC012689068B842FBD230
:102520005068B142C3E9002003605360E9D1002341
:1025300083F31188A90429D5434CD4F8D83013B1BA
:10254000D4F8DC009847302383F31188424ED4F846
:10255000D010B14217D04FF0000C0B4609681A6C2E
:102560009F68C4F8D0104E60C3F850C083F84CC0C8
:1025700012689068B842FBD25068B142C3E90020AB
:1025800003605360E9D1002383F311886A0429D5DD
:102590002D4CD4F8E83013B1D4F8EC009847302330
:1025A00083F311882D4ED4F8E010B14217D04FF0CC
:1025B000000C0B4609681A6C9F68C4F8E0104E6066
:1025C000C3F850C083F84CC012689068B842FBD280
:1025D0005068B142C3E9002003605360E9D1002391
:1025E00083F311882B0427D5174CD4F8F83013B196
:1025F000D4F8FC009847302383F31188184DD4F8A1
:10260000F010A94215D000270B4609681A6C9E6885
:10261000C4F8F0104D601F6583F84C701268906824
:10262000B042FBD25068A942C3E900200360536066
:10263000EAD1002383F311880A4B4FF080525A608D
:10264000F8BD00BF0004014068090020080A00200E
:10265000180A0020280A0020380A0020480A002012
:10266000580A002000ED00E000000000000000001B
:1026700008B50448FEF79CF8034B4FF080525A60AF
:1026800008BD00BFA808002000ED00E00000000029
:1026900008B50448FEF78CF8034B4FF080525A609F
:1026A00008BD00BF0809002000ED00E000000000A8
:1026B0006F48816AF8B50D688C68CA69C2F3080270
:1026C00053014FEA122C03F4787343EA8C234FEA48
:1026D000D20C0CF0040C43EA0C034FEA121C0CF071
:1026E000080C920802F0100243EA0C031343C2687C
:1026F000134012D013F4BC6614D19F0500F19D80E5
:102700005E0700F183801A0748D4DB0663D40369AF
:102710000D608C600BB156489847564B4FF0805275
:102720005A60F8BD10220A624A6824F0805422F0F0
:1027300040024A6024F0010425F48875302282F3B7
:10274000118882698AB10026866182F84C60012670
:1027500016659768166C3668D6F808C0BC45FAD27C
:102760007768166057603A607260C2698AB1002665
:10277000C66182F84C60012616659768166C36684B
:10278000D6F808C0BC45FAD21660776857603A6040
:102790007260002282F311881A07B6D524F400046F
:1027A000302282F31188026A82B100260662166521
:1027B00082F84C609768166C3668D6F808C0BC453D
:1027C000FAD27768166057603A607260002282F32E
:1027D0001188DB069BD525F04005302383F3118853
:1027E000436A7BB1002242621A6583F84C209F68DD
:1027F0001A6C12689668BE42FBD256681A605E6018
:1028000033605360002383F3118880E710220A624B
:1028100024F08054302282F311888269002AB8D0D3
:1028200000268661166582F84C609768166C3668DB
:10283000D6F808C0BC45A7D3F9E725F0100530222B
:1028400082F31188C2697AB1C661166582F84C605C
:102850009768166C3668D6F808C0BC45FAD2776817
:10286000166057603A607260002282F3118847E771
:102870005808002000ED00E000000000000000000B
:102880002DE9F0474FF080463369F2681340DAB221
:10289000D2439B07326105D4454B4FF080525A60BA
:1028A000BDE8F087302383F31188424D4FF0000AD2
:1028B00005F110074FF030082C69EA69716AA368C6
:1028C000881A984202EB030934D3D4E90032C5F8E0
:1028D0001C9013605A60C4F800A02B69BB4208BF6B
:1028E000C6F80CA08AF31188D4E903312046984732
:1028F00088F311886369002BDED0716AA1EB0900AF
:1029000083422FD32A69BA4246D091688B4204D9B8
:1029100012685B1A91689942FAD3A36091682260A9
:10292000C91A536863601C604FF0FF33C2E901416C
:10293000AB61BFE7BC420CD05B1A1344022BE961C8
:10294000A36038BF0223CA187263726A511A8B429D
:1029500011D9002383F31188154B4FF080525A6030
:10296000BDE8F0876B6B2A6943F00203BA426B63E0
:1029700019D00346C9E702234FF080410133D01834
:102980004863486A821A9A420FD2022BE1D96B6BD4
:1029900043F001036B63DCE75B1A03EB090220469B
:1029A000FEF7CEF8D5E70022F9E70246E6E700BFDA
:1029B00000ED00E0680A00200000000000000000B8
:1029C00038B5184DEB691C69DA681440E2B2D2439D
:1029D0001A61A30704D56B681B690BB12846984799
:1029E000600704D56B689B690BB10E4898472107B7
:1029F00004D56B681B6A0BB10A489847E20604D5F8
:102A00006B689B6A0BB107489847E30704D56B686E
:102A10009B680BB103489847034B4FF080525A60B4
:102A200038BD00BF8808002000ED00E00000000075
:102A3000984A9948D36A43F07F0330B4D362D46A8A
:102A400024F07F04D462D46AD46C44F07F04D4644C
:102A5000D46E4FF0904144F07F040023D4668F4C35
:102A6000D56E4B608C604FF01054CC604FF44C44EA
:102A70004B610C628A4C4B620C60C02443606FF067
:102A8000406584606FF04004C36001F500614361FC
:102A9000036243620460834C4B604FF0FF308B60F5
:102AA000CB604B610B624B620D60636001F50061AE
:102AB000A360E36063612362636220604B608B60AC
:102AC000CB604B610B624B620860C4F80438C4F8F9
:102AD0000838C4F80C38C4F81438C4F82038C4F8DE
:102AE0002438C4F80008C1F80438C1F80838C1F81F
:102AF0000C38C1F81438C1F82038C1F82438C1F8AE
:102B00000008916A9062916A9362916AD46A6649F8
:102B100064F07F04D462D46A04F07F04D462D46A7F
:102B2000146B1063146B1363146B946B9063946B4E
:102B30009363946BD46BD063D46BD363D46B146CFA
:102B40001064106C1364106C106E40F0010010667D
:102B5000D2F8800020F00100C2F88000D2F8800096
:102B6000906D40F080509065906F20F0805090679D
:102B70004FF40044906F8C60CB600B624B628B62B1
:102B8000CB620B634B638B63CB630B644B648B64D3
:102B9000CB640B654B65086840F480700860D2F820
:102BA000901001F44071B1F5807F05D04FF4803171
:102BB000C2F89010C2F89030364AD2F8903043F004
:102BC0001903C2F89030D2F890309B07FBD5374BF1
:102BD00035494FF4806494600020C2F888304FF487
:102BE0000073C2F89C000B604B6913F4C06FFBD1FB
:102BF000284A936803F00C03042B61D1254B1A6813
:102C000042F480321A601A689003FCD5D3F8981009
:102C1000204A41F00101C3F89810D2F89830990782
:102C2000FBD52349234B1B48D160136003689A01ED
:102C3000FCD58368204A214903F0030343F48063F1
:102C40008360116013684B4013F00F03FAD1164AEA
:102C50004FF440704FF4807110605360C2F88010E0
:102C600053699B05FCD40B4A936843F0030341F27C
:102C70000C01936093684B4013F00C0FFAD1D2F81B
:102C8000903023F0032343F4807330BCC2F89030BB
:102C9000704700BF0010024000040048000C003CD8
:102CA000AFF7FFEB000C00480070004055010050EA
:102CB0005355610100030101002002400407040094
:102CC000136843F48073136013685D05FCD501231A
:102CD0000D4993608B6803F00C03042BFAD10B4A67
:102CE0000B4B1360136813F00F03FBD1064A6321EB
:102CF000C2F89830116013689C03FCD4054B4FF464
:102D00008072C3F8802079E7001002400020024062
:102D100000060400007000400000000000000000F9
:102D200070B5302383F311881D4BD9684A6D08654F
:102D300001F1540C944518BF4FF0000E11D191F8D9
:102D40004E201AB318680F2281F84C2002681A60CE
:102D50004FF0010C536080F84CC0D86000DF70BDAC
:102D600022461468106C96684C6582F84CE0006846
:102D70008568B542FBD245681060644555602A609D
:102D80004260EDD191F84E20002ADBD191F84D2020
:102D90009207D7D1D1E90E2002605060D2E700BF80
:102DA000680A002000000000000000000000000091
:102DB00010B4302383F31188114AD36810689968DE
:102DC00084688C4216D9046814606260012480F81B
:102DD0004C40D06000241A6C83F84C401268946810
:102DE000A142FBD3516810BCC3E900210B60194616
:102DF00053607047002080F31188014610BC704773
:102E0000680A002000000000000000000000000030
:102E10002DE980484FF0E02389B05C6800224FF034
:102E2000FF30930003F1604303F561439442C3F81C
:102E3000800002F10102C3F88001F2D1BE4A602392
:102E40004021802482F806334FF48070C2F880114C
:102E5000116082F80733C2F8804114604FF40074A7
:102E600082F80833C2F88001106082F80933C2F892
:102E7000804114604FF4806482F80A33C2F88041C4
:102E800014604FF4000482F817337025C2F88041B3
:102E9000146082F828334FF08053C2F884014FF059
:102EA0000054506082F81C53C020C2F88031136077
:102EB000202382F81D53C2F88041146082F8250354
:102EC000C2F8843153609D4B82F826034FF00064B2
:102ED000C2F88411516082F85B0303F58071C2F877
:102EE000884194600022C3E90033C3E90222103311
:102EF0008B42F8D1924B93499348D96193495A60D8
:102F0000C1E9080088611030C8619148C8630F4664
:102F1000C1E9110010300124086404258D4847F8E8
:102F2000040B1C70DA601D741A768B4B4F601E46C2
:102F300001F10C07C1E90377DFF8208246F8040BA2
:102F400001F130078648C1F84C80C1E90C77DFF801
:102F500014C2DFF814824A6110278F63C1F85480CD
:102F6000C1E90A210C720965C1F858C003F10C0EC1
:102F70007E495E601C72C3E903EE01607C49996181
:102F8000C3E908113944C0E90222D96179497A4E6E
:102F90005A61C3E911119F63C3F858C00471D96322
:102FA000394403F130071964B16D1B65C3E90C772F
:102FB000724FDF64724F5F65C3E90A23714F724B32
:102FC000DFF8C8812143C0E90A73C0E90422C0E9DF
:102FD0000622C0E90822B165B36F6D492343B36788
:102FE000B36F8B6823438B604FF0804344F26721BB
:102FF00099624FF0FF31D96200209A615A63DA601A
:103000005A605C611C6002910021CDE90601CDE9A6
:10301000032288F80040C8F80820059202A8FDF7AE
:10302000A7FAFDF7ADFA013DF8D15A495A4A5B4873
:10303000029BC8F8083001F10C04C1E90344584C64
:103040001462946302F1100414610424D461546383
:1030500002F12404546202F12804946202F13C0457
:10306000D46302F14004146402F1440454644D4CEE
:1030700004604D4C4D4B44604D484D61C1E90155D4
:1030800008604C499963142191611C21C2E9002216
:1030900095605561D562C8F804301D633024116312
:1030A00084F3118862B6C3E92755434A9D605D6386
:1030B000DD61D068DB674FF6FF0108403F49C3F888
:1030C00084500143D160D2F8FC103D4841F080713A
:1030D000C2F8FC10016841F0010101602026F021D6
:1030E000D67782F8221003F11002C3E904224FF0D0
:1030F000FF329A614FF0804203F19006526AC3F8A2
:10310000906003F13C060192DE602E4EC3F88060B1
:1031100003F19402019E2C490120C3E9252203F109
:10312000280C03F1740A80222F46A3F8880083F844
:103130008A00C3F878C049E000E100E06809002097
:103140008808002000040040640C0020A80800202B
:10315000840C0020A4340008080900201105000890
:103160005808002080FE210A00380140CC340008B5
:10317000740C0020940C002000100240210500086F
:10318000004400400080004040FF1005380C002043
:10319000002004E0440C0020E80B0020300C00204C
:1031A00011060008C810002000000220680A002054
:1031B000D1050008E433000800ED00E00003FA0543
:1031C000001000E0F8330008180B0020C3F828A016
:1031D0005A64C3F8A420C3E908674FF0020688F8D0
:1031E000006001F14006CE662A4E4E676FF002067F
:1031F000C1F89460284E8E654FF08076CE65274EDC
:10320000C1F8A46001F1980B01F1B80901F1600E59
:1032100001F1B406C3F8AC50C1F8A810C1E926CA40
:10322000C1F8B4600C678D678866C1F8A030C1F83A
:10323000C80081F8AE00C1E93055C3F874B0C3F8D6
:103240002CB0C1E92E99A1F8AC50C1E91833C3E9FB
:1032500000EE85F31188124B12484FF4C871FEF747
:10326000DFF9114B11487F224FF42471FEF7D8F992
:103270004FF090456B6983F020036B6184F31188F4
:1032800041F288310820FDF78BFC002383F311887D
:10329000F0E700BF610500080D030008D8330008FF
:1032A000911D0008380F002081110008A80C002093
:1032B000830730B548D0541E002A3FD0CAB2034617
:1032C00001E0013C3AD303F8012B9D07F9D1032C0F
:1032D0002DD9CDB245EA05250F2C45EA054536D94D
:1032E000A4F1100222F00F0C03F1200EE6444FEA85
:1032F000121C03F1100242E9045542E90255103252
:103300007245F8D10CF1010214F00C0F03EB02121C
:1033100004F00F0C13D0ACF1040323F003030433C7
:10332000134442F8045B9342FBD10CF003042CB12C
:10333000C9B21C4403F8011B9C42FBD130BD64465A
:103340001346002CF4D1F9E703461446BFE71A46AA
:04335000A446E0E7C8
:1033540070776D006E6F6E616D650000286E756C20
:103364006C29000073657269616C000057616974AF
:10337400696E672035207365636F6E647320666FB2
:103384007220746865206D6F64756C657320746F4A
:1033940020706169722E2E2E0D0A00004265676945
:1033A4006E6E696E672074686520636F6D6D756EEF
:1033B40069636174696F6E2E2E2E0D0A0000000081
:1033C4005B4442475D3A2025730D0A00456E7465DF
:1033D4007200000069646C65000000006330000046
:1033E400E03300080000000000000000180B00207B
:1033F400E80B00206D61696E002C04380404700829
:103404000C383C44484C4D4E000000000000280499
:103414000100040000000000000C001028303400FB
:103424004C350008C8100020C8100020C810002027
:103434004C3500080000002000000020000000209F
:103444004C3500080000002000000020000000208F
:103454004C350008004001200040012000400120BC
:103464004C350008008001200080012000800120EC
:103474004C3500080000001000000010000000108F
:103484004C350008000000000000000000000000AF
:103494004C3500080000000000000000000000009F
:1034A40000000000D1180008D1170008310E0008F0
:1034B400910D0008410E0008A10D0008E118000854
:1034C400E11700086104000800000000710F000803
:1034D40061110008F1180008F10F0008510E0008EE
:1034E40031100008810F00087111000871040008F0
:1034F400204E0000E803000000000000010000006E
:1035040000000000010000000000000001000000B5
:1035140000000000010000000000000000000000A6
:103524000000000000000000000000000000000097
:1035340000000000000000004808002048080020A7
:0835440000000000000000007F
:04000005080002B934
:00000001FF
